:100000000C9446000C9465000C9465000C946500FB
:100010000C9465000C9465000C9465000C946500CC
:100020000C9465000C9465000C9465000C946500BC
:100030000C9465000C9465000C9465000C946500AC
:100040000C9465000C9465000C9465000C9465009C
:100050000C9465000C9465000C9465000C9465008C
:100060000C9465000C9465000C9465000C9465007C
:100070000C9465000C9465000C9465000C9465006C
:100080000C9465000C9465000C94650011241FBE4F
:10009000CFEFD0E4DEBFCDBF11E0A0E0B1E0EAE5F4
:1000A000F9E000E00BBF02C007900D92AE32B1073D
:1000B000D9F721E0AEE2B1E001C01D92A833B2074A
:1000C000E1F70E94F0020C94AB040C940000CF9373
:1000D000DF9300D00F92CDB7DEB789837B836A832D
:1000E00089818A3031F48A819B81BC018DE00E9434
:1000F000670080EC90E0FC018081882F90E08072A6
:100100009927892BB1F386EC90E02981FC012083AB
:1001100080E090E00F900F900F90DF91CF910895C5
:10012000CF93DF93CDB7DEB764970FB6F894DEBFF9
:100130000FBECDBF69837A838B839C83809132010C
:1001400090913301A0913401B09135019C01AD0132
:1001500069817A818B819C810E941703882309F42D
:1001600091C020E030E0A90169817A818B819C8176
:100170000E941703882351F481E990E0DC012C915F
:1001800081E990E02870FC01208309C081E990E0BA
:10019000DC012C9181E990E02360FC01208328E5BB
:1001A00039E344E75FE369817A818B819C810E9416
:1001B000170388234CF488E990E02FEF3FEFDC0130
:1001C00011963C932E934DC020E034E244EF56E468
:1001D00069817A818B819C810E943904181634F4DC
:1001E00088E990E0FC01118210823BC020E030E001
:1001F00040E053E469817A818B819C810E943E04B6
:1002000069877A878B879C8789859A85AB85BC852A
:100210009C01AD0160E074E284EF9AE40E941C034B
:100220006D877E878F87988B8D859E85AF85B889F2
:100230008D839E83AF83B8876D817E818F81988502
:100240000E948E03698B7A8B8B8B9C8B89899A8910
:100250009C012150310988E990E0DC0111963C9322
:100260002E9384E990E0FC011182108289819A81A9
:10027000AB81BC818093320190933301A093340110
:10028000B0933501000064960FB6F894DEBF0FBE40
:10029000CDBFDF91CF910895CF93DF93CDB7DEB778
:1002A00080E990E020E4FC01208381E990E02BE0EC
:1002B000FC01208360E070E0CB010E949000000010
:1002C000DF91CF910895CF93DF93CDB7DEB780E96B
:1002D00090E0FC01108281E990E0FC0110820000B6
:1002E000DF91CF910895CF93DF93CDB7DEB72C97F1
:1002F0000FB6F894DEBF0FBECDBF8091360190914E
:1003000037018530910509F47DC08630910508F0EC
:1003100093C08430910509F467C08530910508F0D9
:100320008BC08330910509F458C08430910508F0E2
:1003300083C08230910509F45EC08330910508F0D6
:100340007BC0009719F0019741F076C081E090E002
:10035000909337018093360174C080E290E0FC01F5
:100360008081882F90E080959095877099270197DC
:1003700039F482E090E0909337018093360161C0B8
:1003800080E290E0FC018081882F90E0809590953C
:1003900087709927029739F483E090E090933701B2
:1003A000809336014EC080E290E0FC018081882F6E
:1003B00090E08095909587709927049739F484E0B0
:1003C00090E090933701809336013BC081E090E04C
:1003D000909337018093360134C085E090E090938C
:1003E0003701809336012DC085E090E0909337016E
:1003F0008093360126C085E090E09093370180938A
:1004000036011FC080E290E0FC018081882F90E0DF
:100410008095909587709927892B39F481E090E039
:1004200090933701809336010CC085E090E0909363
:1004300037018093360105C01092370110923601C2
:10044000000080913601909137018530910509F4C3
:10045000B2C08630910508F0B0C08430910509F42F
:100460004AC08530910508F0A8C08330910599F005
:100470008430910508F0A1C08230910509F46BC069
:100480008330910508F099C0009709F498C001974E
:1004900009F497C092C080912E0190912F01079787
:1004A00048F480912E0190912F01019690932F0195
:1004B00080932E018091300190913101019709F0D4
:1004C00082C080912E0190912F01880F991F880F73
:1004D000991F825F9E4FFC012081318142815381AF
:1004E00029833A834B835C8369817A818B819C81E8
:1004F0000E94900068C080912E0190912F01892B5D
:1005000049F080912E0190912F01019790932F0136
:1005100080932E018091300190913101019709F073
:1005200054C080912E0190912F01880F991F880F40
:10053000991F825F9E4FFC0120813181428153814E
:100540002D833E834F8358876D817E818F8198856F
:100550000E9490003AC08091300190913101892B26
:1005600001F581E090E0909331018093300180911A
:100570002E0190912F01880F991F880F991F825F7C
:100580009E4FFC01208131814281538129873A8726
:100590004B875C8769857A858B859C850E94900056
:1005A00015C0109231011092300160E070E0CB0173
:1005B0000E9490000BC0000009C0000007C00000AE
:1005C00005C0000003C0000001C0000000002C9620
:1005D0000FB6F894DEBF0FBECDBFDF91CF91089567
:1005E000CF93DF93CDB7DEB781E290E0FC011082BC
:1005F00082E290E02FEFFC01208384E290E02FEF75
:10060000FC01208385E290E0FC0110820E944C01F5
:10061000109237011092360110922F0110922E0184
:1006200010923101109230010E947301FDCF0E949F
:10063000C40308F481E008950E9430030C94FF0382
:100640000E94F80358F00E94F10340F029F45F3F44
:1006500029F00C94E80351110C9433040C94EE032C
:100660000E94100468F39923B1F3552391F3951B6D
:10067000550BBB27AA2762177307840738F09F5FC3
:100680005F4F220F331F441FAA1FA9F335D00E2E30
:100690003AF0E0E832D091505040E695001CCAF79D
:1006A0002BD0FE2F29D0660F771F881FBB1F261760
:1006B00037074807AB07B0E809F0BB0B802DBF0137
:1006C000FF2793585F4F3AF09E3F510578F00C9406
:1006D000E8030C9433045F3FE4F3983ED4F386952B
:1006E00077956795B795F7959F5FC9F7880F911D27
:1006F0009695879597F90895E1E0660F771F881F13
:10070000BB1F621773078407BA0720F0621B730BC5
:10071000840BBA0BEE1F88F7E09508950E949503AD
:100720006894B1110C94330408950E94180488F061
:100730009F5798F0B92F9927B751B0F0E1F0660FA5
:10074000771F881F991F1AF0BA95C9F714C0B130E6
:1007500091F00E943204B1E008950C943204672FA6
:10076000782F8827B85F39F0B93FCCF38695779515
:100770006795B395D9F73EF49095809570956195FE
:100780007F4F8F4F9F4F0895990F0008550FAA0B69
:10079000E0E8FEEF16161706E807F907C0F0121694
:1007A0001306E407F50798F0621B730B840B950B97
:1007B00039F40A2661F0232B242B252B21F40895EC
:1007C0000A2609F4A140A6958FEF811D811D089589
:1007D00097F99F6780E870E060E008959FEF80ECF4
:1007E000089500240A941616170618060906089597
:1007F00000240A9412161306140605060895092EFD
:100800000394000C11F4882352F0BB0F40F4BF2B6B
:1008100011F460FF04C06F5F7F4F8F4F9F4F0895AB
:1008200057FD9058440F551F59F05F3F71F04795A1
:10083000880F97FB991F61F09F3F79F08795089586
:10084000121613061406551FF2CF4695F1DF08C0A5
:10085000161617061806991FF1CF869571056105C2
:1008600008940895E894BB2766277727CB0197F96A
:1008700008950E94C40308F48FEF08950E94510464
:100880000C94FF030E94F10338F00E94F80320F05B
:10089000952311F00C94E8030C94EE0311240C94AE
:1008A00033040E94100470F3959FC1F3950F50E03C
:1008B000551F629FF001729FBB27F00DB11D639F12
:1008C000AA27F00DB11DAA1F649F6627B00DA11DB8
:1008D000661F829F2227B00DA11D621F739FB00D5E
:1008E000A11D621F839FA00D611D221F749F3327CE
:1008F000A00D611D231F849F600D211D822F762F67
:100900006A2F11249F5750409AF0F1F088234AF043
:10091000EE0FFF1FBB1F661F771F881F91505040AF
:10092000A9F79E3F510580F00C94E8030C94330422
:100930005F3FE4F3983ED4F3869577956795B79536
:10094000F795E7959F5FC1F7FE2B880F911D969550
:0A095000879597F90895F894FFCFFA
:10095A000000000200000000670000000000A4D0B0
:10096A0082437BD49243A4D0A443719DAE4300003A
:0E097A00C4430000DC43A4F0F64300D0024466
:00000001FF
